:100000002500180A00002500180A060A0F024306F8
:10001000170A010C2A006900E9020C0AEA020B0A1D
:100020004A0C2900E902120A150AEF02090A00081F
:100030006400FF0C2D00C704E704690061000F0C89
:1000400002000400090202000D040D02060006056C
:10005000E10C2E00F20C2F000609EE022A0A0E0C0B
:100060002F0006094D050D0206004607460A0D043D
:100070000D0206000604140C2E00FA0C2F000609CF
:10008000EE023D0A0D040D0206000605140C2F00B9
:060090000609320A03001C
:021FFE000A00D7
:00000001FF
;PIC10F222
;CRC=0F45  CREATED="24-Jun-22 00:32"
